:020000000130CD
:020003000140BA
:02001B0001439F
:100030001146115111CB31E2119C11E151060132EF
:10004000055332053332900265E493514AA370F9A7
:1000500022758911D2AFD288758B00758D007531EC
:100060000075320075330075530020B2FD30B2FDCB
:10007000D28ED2AB20B2FDC28E858B31858D32C23D
:10008000ABD2A87F0E758ADC758C0BD28C308DFDBF
:10009000C28CC28DDFEF855330C2A8227840A931CF
:1000A000AA32AB33AC30ECF5F0E9A4F608E5F0FD8C
:1000B000E530F5F0EAA42DF608E5F0FDE530F5F0C1
:1000C000EBA42DF6E5F0340008F62279007A007BE7
:1000D0000075F00AE53084A9F075F00A84AAF0FBF7
:1000E0002279007A007B007C007D007E007F007515
:1000F000500075510075520075F00AE54084A9F072
:1001000075F00A84AAF0FBE541B4000BE542B400A7
:1001100034E543B4006F2274062975F00A84A9F00F
:1001200024052A75F00A84AAF024022B75F00A84AB
:10013000ABF02CFCD541E075F00AEC84ACF0FD741A
:0C01400042B400012274062975F00A8404
:10014C00A9F024032A75F00A84AAF024052B75F073
:10015C000A84ABF024052C75F00A84ACF024062D2F
:10016C0075F00A84ADF02EFED542CE75F00AEE8401
:10017C00AEF0FFE543B400012274062975F00A8441
:10018C00A9F024012A75F00A84AAF024022B75F038
:10019C000A84ABF024072C75F00A84ACF024072DEC
:1001AC0075F00A84ADF024072E75F00A84AEF024A5
:1001BC00062F75F00A84AFF02401255075F00A84DF
:1001CC0085F0502551F551D543AF75F00AE55184B2
:1001DC0085F051F552227482514A74465155743D42
:1001EC005155EB24305155EA24305155E924305106
:1001FC005574485155747A51552274C2514A7444FD
:10020C00515574435155743D5155E5522430515557
:10021C00E55124305155E55024305155EF243051DF
:10022C0055EE24305155ED24305155742E5155EC6A
:10023C0024305155EB243051557425515522F590ED
:10024C00C2A5D2A75160C2A722F590D2A5D2A751C0
:04025C0060C2A722B3
:0B02600078FFD8FE22380C01068B004E
:00000001FF
